:020000040800F2
:100000000000082491130008F9100008FB100008F4
:10001000FD100008FF10000801110008000000009A
:1000200000000000000000000000000003110008B4
:100030000511000800000000071100080911000860
:10004000E1130008E1130008E1130008E1130008C0
:10005000E1130008E1130008E1130008E1130008B0
:10006000E1130008E1130008E11300081111000872
:1000700021110008E1130008E1130008E113000852
:10008000E1130008E1130008E1130008E113000880
:10009000E1130008E1130008E1130008E113000870
:1000A000E1130008E1130008E1130008E113000860
:1000B000E1130008E1130008E1130008E113000850
:1000C000E1130008E1130008E1130008E113000840
:1000D000E113000831110008E1130008E1130008E2
:1000E000E1130008E113000800000000E11300081C
:1000F000E1130008E1130008E1130008E113000810
:10010000E1130008E1130008E1130008E1130008FF
:10011000E1130008E1130008E1130008E1130008EF
:10012000E1130008E1130008E1130008E1130008DF
:10013000E1130008E1130008E1130008E1130008CF
:1001400000000000000000000000000000000000AF
:10015000E1130008E1130008E1130008E1130008AF
:10016000E1130008E1130008E1130008E11300089F
:10017000E1130008E1130008E1130008000000008B
:10018000E1130008E1130008E1130008E11300087F
:10019000E1130008E1130008E1130008E11300086F
:1001A000E1130008E1130008E1130008E11300085F
:1001B000E1130008E1130008E1130008E11300084F
:1001C000E1130008E1130008E1130008E11300083F
:1001D000E1130008E1130008E1130008E11300082F
:1001E000E1130008E1130008E1130008E11300081F
:1001F000E1130008E1130008E1130008E11300080F
:10020000E1130008E1130008E1130008E1130008FE
:10021000E1130008E1130008E1130008E1130008EE
:10022000E1130008E1130008E113000800000000DA
:10023000E1130008E113000800000000E1130008CA
:10024000E1130008E1130008E1130008E1130008BE
:10025000E1130008E1130008E1130008E1130008AE
:10026000E1130008E1130008E1130008E11300089E
:10027000E1130008E1130008E1130008000000008A
:10028000E1130008E1130008E1130008000000007A
:0802900000000000E11300086A
:1002980080F0004002E000BF81F0004142001FBF33
:1002A8005FEA410392EA030F7FEA226C7FEA236C3C
:1002B8006AD04FEA1262D2EB1363C1BFD218414031
:1002C80048404140B8BF5B42192B88BF704710F0C7
:1002D800004F40F4000020F07F4018BF404211F06A
:1002E800004F41F4000121F07F4118BF494292EAD2
:1002F800030F3FD0A2F1010241FA03FC10EB0C00FE
:10030800C3F1200301FA03F100F0004302D549428A
:1003180060EB4000B0F5000F13D3B0F1807F06D337
:1003280040084FEA310102F10102FE2A51D2B1F12F
:10033800004F40EBC25008BF20F0010040EA030024
:100348007047490040EB0000013A28BFB0F5000FA4
:10035800EDD2B0FA80FCACF1080CB2EB0C0200FA5A
:100368000CF0AABF00EBC25052421843BCBFD040A9
:100378001843704792F0000F81F4000106BF80F423
:1003880000000132013BB5E74FEA41037FEA226CE6
:1003980018BF7FEA236C21D092EA030F04D092F0B1
:1003A800000F08BF0846704790EA010F1CBF0020E5
:1003B800704712F07F4F04D1400028BF40F0004042
:1003C800704712F100723CBF00F50000704700F062
:1003D800004343F0FE4040F4000070477FEA226289
:1003E80016BF08467FEA23630146420206BF5FEA5A
:1003F800412390EA010F40F4800070474FF000035A
:1004080004E000BF10F0004348BF40425FEA000C20
:1004180008BF704743F0964301464FF000001CE0C8
:1004280050EA010208BF70474FF000030AE000BF1E
:1004380050EA010208BF704711F0004302D540425C
:1004480061EB41015FEA010C02BF844601460020CE
:1004580043F0B64308BFA3F18053A3F50003BCFAE9
:100468008CF2083AA3EBC25310DB01FA02FC634496
:1004780000FA02FCC2F12002BCF1004F20FA02F29D
:1004880043EB020008BF20F00100704702F1200290
:1004980001FA02FCC2F1200250EA4C0021FA02F2F1
:1004A80043EB020008BF20EADC7070474FF0FF0CF6
:1004B8001CEAD0521EBF1CEAD15392EA0C0F93EAF1
:1004C8000C0F6FD01A4480EA010C400218BF5FEA93
:1004D80041211ED04FF0006343EA501043EA511106
:1004E800A0FB01310CF00040B1F5000F3EBF490000
:1004F80041EAD3715B0040EA010062F17F02FD2A04
:100508001DD8B3F1004F40EBC25008BF20F00100E6
:10051800704790F0000F0CF0004C08BF49024CEAFD
:10052800502040EA51207F3AC2BFD2F1FF0340EA8F
:10053800C250704740F400004FF00003013A5DDC00
:1005480012F1190FDCBF00F000407047C2F1000241
:10055800410021FA02F1C2F1200200FA02FC5FEA2E
:10056800310040F1000053EA4C0308BF20EADC7078
:10057800704792F0000F00F0004C02BF400010F4EA
:10058800000F013AF9D040EA0C0093F0000F01F097
:10059800004C02BF490011F4000F013BF9D041EAB9
:1005A8000C018FE70CEAD15392EA0C0F18BF93EABB
:1005B8000C0F0AD030F0004C18BF31F0004CD8D1E5
:1005C80080EA010000F00040704790F0000F17BF6C
:1005D80090F0004F084691F0000F91F0004F14D0B2
:1005E80092EA0C0F01D142020FD193EA0C0F03D10A
:1005F8004B0218BF084608D180EA010000F000400D
:1006080040F0FE4040F40000704740F0FE4040F4E7
:10061800400070474FF0FF0C1CEAD0521EBF1CEA86
:10062800D15392EA0C0F93EA0C0F69D0A2EB0302A4
:1006380080EA010C49024FEA402037D04FF080533E
:1006480043EA111143EA10130CF000408B4238BF03
:100658005B0042F17D024FF4000C8B4224BF5B1A11
:1006680040EA0C00B3EB510F24BFA3EB510340EA5F
:100678005C00B3EB910F24BFA3EB910340EA9C000D
:10068800B3EBD10F24BFA3EBD10340EADC001B017D
:1006980018BF5FEA1C1CE0D1FD2A3FF650AF8B4221
:1006A80040EBC25008BF20F0010070470CF0004C2E
:1006B8004CEA50207F32C2BFD2F1FF0340EAC25059
:1006C800704740F400004FF00003013A37E792F01A
:1006D800000F00F0004C02BF400010F4000F013A78
:1006E800F9D040EA0C0093F0000F01F0004C02BF73
:1006F800490011F4000F013BF9D041EA0C0195E7DC
:100708000CEAD15392EA0C0F08D142027FF47DAF74
:1007180093EA0C0F7FF470AF084676E793EA0C0F64
:1007280004D14B023FF44CAF08466EE730F0004C62
:1007380018BF31F0004CCAD130F000427FF45CAFF2
:1007480031F000437FF43CAF5FE700BF42000ED2B8
:10075800B2F1FE4F0BD34FF09E03B3EB126209D4F4
:100768004FEA002343F0004323FA02F070474FF0AA
:100778000000704712F1610F01D1420202D14FF01F
:10078800FF3070474FF00000704700BF53B94AB9B7
:10079800002908BF00281CBF4FF0FF314FF0FF3081
:1007A80000F00CB8ADF1080C6DE904CE06F00EFFB0
:1007B800DDF804E0DDE9022304B07047704700BFAC
:1007C8000348044B834202D0034B03B118477047D8
:1007D8002000002420000024000000000548064BEB
:1007E8001B1AD90F01EBA301491002D0034B03B127
:1007F8001847704720000024200000240000000053
:1008080010B5064C237843B9FFF7DAFF044B13B150
:100818000448AFF300800123237010BD200000249A
:1008280000000000547A000808B5054B1BB10549C3
:100838000548AFF30080BDE80840FFF7CFBF00BF11
:100848000000000024000024547A000808B50B4872
:100858000B4B0360002343608360C3600361436103
:100868008361036243628362C362036300F0FCFE38
:1008780000B908BD00F05FFAFBE700BF3C000024A8
:100888000000024870B58AB00023059306930793C9
:100898000893099302682B4B9A4201D00AB070BDA5
:1008A800294BD3F8DC2042F00102C3F8DC20D3F84E
:1008B800DC2002F001020192019AD3F8E02042F410
:1008C8008072C3F8E020D3F8E02002F4807202922C
:1008D800029AD3F8E02042F08002C3F8E020D3F86F
:1008E800E02002F080020392039AD3F8E02042F05D
:1008F8000102C3F8E020D3F8E03003F001030493C9
:10090800049BF0230593022606960D25099505A953
:100918000E4802F05DFB4FF4BE4305930696002493
:1009280007940894099505A9094802F051FB40234A
:100938000593069607940894099505A9054802F0B9
:1009480047FBABE700000248004402580020025869
:10095800001C02580000025800B583B00F4BD3F8B2
:10096800D82042F00102C3F8D820D3F8D83003F0D9
:1009780001030193019B002211460B2000F002FEA7
:100988000B2000F00FFE002211460C2000F0FAFDAB
:100998000C2000F007FE03B05DF804FB0044025889
:1009A80008B50F480F4B03600023436002228260A2
:1009B800C36043648264C364036543658365C36538
:1009C80002F044FA28B90121054802F07FFA18B963
:1009D80008BD00F0B0F9F6E700F0ADF9F8E700BFA0
:1009E8008C0000240010005202680A4B9A4200D082
:1009F800704782B0084BD3F8D42042F01002C3F8F5
:100A0800D420D3F8D43003F010030193019B02B033
:100A1800704700BF0010005200440258F0B5B9B04A
:100A2800002333933493359336933793354B1B68B0
:100A38000BB139B0F0BD334B01221A60C02200213E
:100A480002A806F021FF4FF080720023CDE90223AF
:100A580002A803F00FFD002850D12B4BD3F8D42067
:100A680042F48052C3F8D420D3F8D43003F480532E
:100A78000193019B4FF68373339302273497002623
:100A88003596032536950C24379433A91F4802F070
:100A98009FFA48F23713339334973596369537943F
:100AA80033A91B4802F094FA4CF20373339334973A
:100AB80035963695379433A9164802F089FA4FF6D9
:100AC8003F033393349735963695379433A91248B4
:100AD80002F07EFA0123339334973596369537948E
:100AE80033A90E4802F074FA339434973596369544
:100AF800379433A90A4802F06BFA9AE700F01BF919
:100B0800ABE700BFF400002400440258001002586C
:100B180000180258000C0258001402580008025825
:100B2800001C025800B589B0002301930293039377
:100B380004930593069307931648174A0260436087
:100B4800012282600822C2601022026140224261B2
:100B58004FF4C0728261C3614FF4006303624FF4C3
:100B6800805343624FF400538362022301930722A8
:100B7800029204210391049203220592069307939B
:100B8800694404F0CBFC10B909B05DF804FB00F02F
:100B9800D2F8F9E7F80000244041005208B5FFF701
:100BA8003DFF08BD70B590B000240B940C940D94D3
:100BB8000E940F94474BD3F8E02042F48072C3F8A8
:100BC800E020D3F8E02002F480720192019AD3F871
:100BD800E02042F48062C3F8E020D3F8E02002F479
:100BE80080620292029AD3F8E02042F04002C3F8F1
:100BF800E020D3F8E02002F040020392039AD3F8F1
:100C0800E02042F01002C3F8E020D3F8E02002F020
:100C180010020492049AD3F8E02042F40072C3F858
:100C2800E020D3F8E02002F400720592059AD3F888
:100C3800E02042F00102C3F8E020D3F8E02002F0FF
:100C480001020692069AD3F8E02042F08002C3F827
:100C5800E020D3F8E02002F080020792079AD3F848
:100C6800E02042F00402C3F8E020D3F8E02002F0CC
:100C780004020892089AD3F8E02042F00802C3F868
:100C8800E020D3F8E02002F008020992099AD3F88C
:100C9800E02042F02002C3F8E020D3F8E03003F06F
:100CA80020030A930A9B01230B9302260C96052521
:100CB8000F950BA9084802F08BF920230B930C968B
:100CC8000D940E940F950BA9044802F081F910B009
:100CD80070BD00BF0044025800280258001C02588A
:100CE80010B584B00024009401940294039400F099
:100CF80071FC01238DF800308DF801404FF040421F
:100D0800019218228DF808208DF809408DF80A40C4
:100D180003228DF80B208DF80C408DF80D408DF8CE
:100D28000E308DF80F40684600F072FC062000F087
:100D38005FFC04B010BD72B6FEE7000000B59FB0BE
:100D48004C2200210BA806F09FFD2022002103A8B9
:100D580006F09AFD022002F0E1FB002300933A4BD3
:100D6800DA6A22F00102DA62DB6A03F00103009317
:100D7800364B9A6942F440429A619B6903F44043B6
:100D88000093009B314B9B6913F4005FFAD0304B02
:100D9800D3F8F42042F00202C3F8F420D3F8F43078
:100DA80003F002030193019B00230293274B9A69E6
:100DB80042F440429A619B6903F440430293224BF8
:100DC800DA6A42F00102DA62DB6A03F00103029395
:100DD800029B1E4B9B6913F4005FFAD009230B9307
:100DE8004FF480330C93012310930223149315932B
:100DF80005221692C02217921893042219921A9368
:100E080008231B9300231C931D930BA802F030FCAE
:100E1800B0B93F23039303230493002305930823C6
:100E280006934023079308934FF4806209920A932C
:100E3800042103A803F086F820B91FB05DF804FB6D
:100E4800FFF779FFFFF777FF0004005800480258C2
:100E58000044025808B5FFF743FF324B5B6913F4AF
:100E6800003F13D1BFF34F8FBFF36F8F2D4B00227D
:100E7800C3F85022BFF34F8FBFF36F8F5A6942F404
:100E880000325A61BFF34F8FBFF36F8F254B5B69F9
:100E980013F4803F27D1234B0022C3F88420BFF3EB
:100EA8004F8FD3F88040C4F34E3000E01846C4F3A7
:100EB800C90243F6E07303EA401343EA827319490F
:100EC800C1F860321346013A002BF2D1431E0028C4
:100ED800ECD1BFF34F8F4B6943F480334B61BFF3C1
:100EE8004F8FBFF36F8F00F0A1FAFFF727FFFFF7CF
:100EF80059FEFFF731FDFFF7A9FCFFF751FDFFF79A
:100F080011FE00F011F800F09FF800F071F905F0FB
:100F18004BFD06F01DFB06F0ABF805F0A3FC05F051
:100F28005DFCFCE700ED00E008B50B480B4B0360E7
:100F380001224260202383601023C36016230361CB
:100F4800002343618261C361036202F03DFB00B983
:100F580008BDFFF7F0FEFBE72C010024005000520B
:100F6800F0B5BBB0044600213591369137913891E0
:100F78003991C02204A806F087FC22682E4B9A42B9
:100F880001D03BB0F0BD4FF000720023CDE904233F
:100F980004A803F06FFA00284AD1284BD3F8D420CC
:100FA80042F48042C3F8D420D3F8D42002F480421B
:100FB8000192019AD3F8E02042F04002C3F8E02001
:100FC800D3F8E02002F040020292029AD3F8E0201F
:100FD80042F02002C3F8E020D3F8E03003F0200309
:100FE8000393039B402335930225369500243794B9
:100FF80038940A27399735A9114801F0E9FF4FF4C9
:1010080098633593369537943894092339930D4E60
:1010180035A9304601F0DCFF4FF44073359336951F
:1010280037943894399735A9304601F0D1FFA8E7AD
:10103800FFF781FEB1E700BF00500052004402589C
:10104800001802580014025808B50A480A4B0360F1
:10105800002343607F228260FF22C26003618361B4
:10106800C361436104F008FA00B908BDFFF763FEE5
:10107800FBE700BF780100240040005810B5B0B06D
:101088000446C0220021684606F0FEFB22680D4B8C
:101098009A4201D030B010BD4FF480020023CDE950
:1010A80000234FF400732D93684603F0E3F928B941
:1010B800054A136F43F400431367EBE7FFF73BFE62
:1010C800F6E700BF004000580044025882B0074BC2
:1010D800D3F8F42042F00202C3F8F420D3F8F43035
:1010E80003F002030193019B02B0704700440258C9
:1010F800FEE7FEE7FEE7FEE7FEE77047704770474A
:1011080008B500F0C1F908BD08B5024801F002FBB6
:1011180008BD00BF1402002408B5024801F0FAFA1D
:1011280008BD00BF9C01002408B5024804F0EAFA93
:1011380008BD00BF8C020024244B1B6803F00F037A
:10114800062B06D8214A136823F00F0343F0070340
:1011580013601F4B1A6842F001021A6000221A61DC
:1011680019681C4A0A401A60184B1B6813F0080FCC
:1011780006D0164A136823F00F0343F007031360E1
:10118800134B00229A61DA611A6213499962134972
:10119800D962134919635A639963DA6319645A6403
:1011A800196821F4802119601A660E4B1B686FF3C9
:1011B8000F03B3F1005F03D20B4B0122C3F80821E0
:1011C8000A4B43F2D2021A60704700BF0020005257
:1011D800004402587FEDF6EA000202020000FF0117
:1011E800800201010010005C0080005100400052A4
:1011F80008B51748174B0360174B436000238360FB
:10120800C36003610C2242618361C361036243626C
:10121800836205F0C4F870B900210D4805F092F911
:1012280060B900210A4805F0B2F950B9084805F03C
:101238006AF948B908BDFFF77EFDEDE7FFF77BFDCA
:10124800EFE7FFF778FDF1E7FFF775FDF2E700BF7D
:101258008C02002400100140003E490030B5B9B0AE
:101268000446002133913491359136913791C0224B
:1012780002A806F009FB22683C4B9A4201D039B01B
:1012880030BD01220023CDE9022302A803F0F2F8C1
:10129800002861D1364BD3F8F02042F01002C3F891
:1012A800F020D3F8F02002F010020092009AD3F850
:1012B800E02042F00102C3F8E020D3F8E03003F068
:1012C80001030193019B4FF4C063339302233493CA
:1012D80000253595032336930723379333A92548EB
:1012E80001F076FE2448254B03602923436085607E
:1012F800C5604FF48063036145618561C5614FF442
:1013080040330362456200F00FFC40BB1A4BC4F83F
:1013180080309C631A481B4B03602A234360402398
:1013280083600023C3604FF480620261436183617C
:10133800C3614FF440320262436200F0F5FB88B9A2
:101348000F4BE3679C6300221146252000F01AF931
:10135800252000F027F992E7FFF7EDFC9AE7FFF761
:10136800EAFCD3E7FFF7E7FCEAE700BF001001401B
:1013780000440258000002581402002410000240E1
:101388009C01002428000240DFF834D0FFF7D4FE87
:101398000C480D490D4A002302E0D458C4500433C8
:1013A800C4188C42F9D30A4A0A4C002301E013609E
:1013B8000432A242FBD306F0B9FAFFF74BFD70479F
:1013C800000008240000002420000024908C00085D
:1013D8002000002448060024FEE70000104B1B787C
:1013E8000BB90120704710B504464FF47A70B0FB72
:1013F800F3F30C4A1068B0FBF3F000F0D7F868B9C3
:101408000F2C01D901200AE0002221464FF0FF30BD
:1014180000F0B8F8044B1C60002000E0012010BD6B
:1014280008000024040000240C00002410B5032048
:1014380000F096F802F074FC0F498B69C3F303239C
:101448000E4AD35C03F01F03D8408B6903F00F03E7
:10145800D35C03F01F0320FA03F3094A1360094B16
:1014680018600F20FFF7BAFF10B10124204610BD05
:101478000446FFF72BFEF9E7004402586C7A00088F
:101488000000002404000024034B1B78034A116861
:101498000B441360704700BF080000242003002499
:1014A800014B1868704700BF2003002438B5044674
:1014B800FFF7F6FF0546B4F1FF3F02D0044B1B7857
:1014C8001C44FFF7EDFF401BA042FAD338BD00BF14
:1014D80008000024014B1868000C70470010005CDD
:1014E800002807DB00F01F02400901239340024A4D
:1014F80042F82030704700BF00E100E0002804DB1C
:101508000901C9B2044B1954704700F00F000901D2
:10151800C9B2024B1954704700E400E014ED00E032
:1015280000B500F00700C0F1070CBCF1040F28BF9C
:101538004FF0040C031D062B0FD9C31E4FF0FF3EBE
:101548000EFA0CF021EA000199400EFA03FE22EA95
:101558000E0241EA02005DF804FB0023EEE70000FA
:101568000649CB6823F4E0631B041B0C000200F45B
:10157800E0600343024A1A43CA60704700ED00E086
:101588000000FA0510B50446054BD868C0F30220E0
:10159800FFF7C6FF01462046FFF7B0FF10BD00BFAA
:1015A80000ED00E008B5FFF79BFF08BD0138B0F17A
:1015B800807F0BD24FF0E0235861054AF02182F872
:1015C80023100020986107221A6170470120704794
:1015D80000ED00E0BFF35F8F044B5A6A22F48032BB
:1015E8005A620022C3F89420704700BF00ED00E063
:1015F80040F00100054BC3F894005A6A42F4803267
:101608005A62BFF34F8FBFF36F8F704700ED00E052
:101618004378144AC2F89830D2F8A03023F0010376
:10162800C2F8A0304368C2F89C30017BC37A1B061D
:1016380043EA0173817A43EAC143417B43EA814328
:10164800817B43EA4143C17B43EA0143417A43EA50
:101658000123017A43EA410301780B43C2F8A03021
:10166800704700BF00ED00E0002848D010B50446E0
:1016780090F83530002B32D0022384F83530A36936
:101688000BB100236362226811681E4B0B40136084
:1016980022681168636860690343E068034320694E
:1016A8000343A0680343A0690343206A0343606AB5
:1016B8000343A06A0343E06A0343206B03430B43DD
:1016C80013606368102B0DD02268D36843F01E03A3
:1016D800D3600020E064012384F8353010BDFFF7A3
:1016E800D1F8C9E7237F627F43EA0223A27F43EA56
:1016F8000243E17F226843EA01639361E4E7012042
:10170800704700BF07F0E0FFF0B4876D0468664ECD
:10171800664DAC4218BFB44242D01835AC423FD0F7
:101728001835AC423CD01835AC4239D01835AC42EB
:1017380036D01835AC4233D01835AC4230D005F528
:101748005675AC422CD01835AC4229D01835AC426D
:1017580026D01835AC4223D01835AC4220D01835E5
:10176800AC421DD01835AC421AD01835AC4217D04F
:101778004F4DAC4214D01435AC4211D01435AC42A4
:101788000ED01435AC420BD01435AC4208D0143509
:10179800AC4205D01435AC4202D01435AC4207D166
:1017A800446E856E6560C46E14B1046F456F6560E4
:1017B80004683D4E3D4DAC4218BFB44252D0183576
:1017C800AC424FD01835AC424CD01835AC4249D059
:1017D8001835AC4246D01835AC4243D01835AC4227
:1017E80040D005F55675AC423CD01835AC4239D0DE
:1017F8001835AC4236D01835AC4233D01835AC4227
:1018080030D01835AC422DD01835AC422AD0183516
:10181800AC4227D0264E274DAC4218BFB44211D057
:10182800254DAC420ED01435AC420BD01435AC4229
:1018380008D01435AC4205D01435AC4202D014356A
:10184800AC4224D1C46D04F01F050124AC407C6077
:10185800046863608368402B20D00368996003683C
:10186800DA6014E0C46D04F01F0C3F2404FA0CF491
:10187800BC6005682C6824F480242C6004686360CC
:101888008368402B05D0036899600368DA60F0BC70
:10189800704703689A600368D960F8E703689A603C
:1018A8000368D960F3E700BF100002402800024037
:1018B800085402581C5402583054025803682749E7
:1018C800274A934218BF8B422FD0183293422CD00C
:1018D8001832934229D01832934226D018329342B4
:1018E80023D01832934220D0183293421DD002F5EB
:1018F8005672934219D01832934216D01832934236
:1019080013D01832934210D0183293420DD01832A7
:1019180093420AD01832934207D01832934204D027
:1019280023F0FF038365806D704710B4D9B2103976
:101938000C4AA2FB0142C2F302120B4CA25CC26524
:101948005F2906D96FF3090304338365806D10BCE2
:1019580070476FF309038365F8E700BF1000024082
:1019680028000240ABAAAAAA7C7A000883699BB91E
:10197800836A012B0AD0022B02D00BB100207047DA
:10198800C36A13F0807F2AD100207047C36AB3F17D
:10199800C07F26D000207047B3F5005F0AD0836A65
:1019A800022B26D9032B26D1C36A13F0807F24D1BA
:1019B80000207047836A032B03D8DFE803F0140480
:1019C800140A00207047C36A13F0807F0DD10020ED
:1019D8007047C36AB3F1C07F09D000207047012067
:1019E800704701207047012070470120704701208F
:1019F80070470120704700207047012070470000A1
:101A080003682149214A934218BF8B4227D01432D8
:101A1800934224D01432934221D0143293421ED0E0
:101A2800143293421BD01432934218D0143293428A
:101A380015D0DAB2103A1649A1FB0212120915495B
:101A48001944A8291ED9144B13449B000366134B51
:101A5800436602F01F020123934083667047DBB29E
:101A6800083B0F4AA2FB03230E4A02EB1312920013
:101A780002660D4A4266C3F30413012202FA03F315
:101A8800836670470832DEE7085402581C5402582F
:101A9800ABAAAAAAF0FBFDBF008200108008024092
:101AA800CDCCCCCC009600168058025801794A1E3D
:101AB800072A2BD830B40368154D164CA34218BF1B
:101AC800AB4218D01434A34215D01434A34212D018
:101AD8001434A3420FD01434A3420CD01434A342BC
:101AE80009D01434A34206D00B4B0B449B00C366A9
:101AF8000A4B036705E00A4B0B449B00C366094B7E
:101B0800036701239340436730BC7047704700BFA9
:101B1800085402581C5402583F82001040090240E1
:101B28003F9600164059025870B50446FFF7B8FCB6
:101B3800002C00F0B981054623685349534A934263
:101B480018BF8B420CBF0121002150D0183293429C
:101B58004DD0183293424AD01832934247D01832A7
:101B6800934244D01832934241D0183293423ED027
:101B780002F5567293423AD01832934237D018324F
:101B8800934234D01832934231D0183293422ED037
:101B9800183293422BD01832934228D018329342ED
:101BA80025D03B493B4A934218BF8B4200F0348111
:101BB800394A934200F030811432934200F02C816C
:101BC8001432934200F028811432934200F02481A9
:101BD8001432934200F020811432934200F01C81A9
:101BE80040236365032384F8353001204AE002224C
:101BF80084F83520002284F8342079BB274A9342A0
:101C08002CD01832934229D01832934226D0183259
:101C1800934223D01832934220D0183293421DD0D9
:101C280002F55672934219D01832934216D01832E0
:101C3800934213D01832934210D0183293420DD0E9
:101C4800183293420AD01832934207D0183293427E
:101C580004D01A6822F001021A6003E01A6822F020
:101C680001021A6023681A6812F0010F18D0FFF7F2
:101C780017FC431B052BF5D920236365032384F840
:101C88003530012070BD00BF10000240280002401E
:101C9800085402581C54025830540258400002405C
:101CA8001A6882491140A268E06802432069024329
:101CB80060690243A0690243E0690243206A024363
:101CC8000A43616A042900F09880794909686FF32A
:101CD8000F01B1F1005F10D361682E2940F29280A4
:101CE80052290AD83F2908D33F39724820FA01F10E
:101CF80011F0010F01D042F480121A60266875694C
:101D080025F00705636A1D43042B08D1A36A1D4308
:101D1800E36A23B12046FFF729FE002876D17561D2
:101D28002046FFF7CBFDE36D03F01F023F239340EE
:101D3800836023686049614A934218BF8B4242D04E
:101D4800183293423FD0183293423CD01832934213
:101D580039D01832934236D01832934233D01832E1
:101D6800934230D002F5567293422CD018329342E7
:101D780029D01832934226D01832934223D01832F1
:101D8800934220D0183293421DD0183293421AD071
:101D98001832934217D04A4A934214D014329342CD
:101DA80011D0143293420ED0143293420BD0143215
:101DB800934208D01432934205D01432934202D091
:101DC8001432934213D12046FFF71AFEA368802BE2
:101DD8005DD0236E22791A60636EA26E5A606368C2
:101DE800013B072B56D90023E3662367636700206E
:101DF8006065012384F8353044E7E16A206B0143CC
:101E08000A4362E72929FFF478AF74E74023636542
:101E1800012084F8350035E7022284F835200022B5
:101E280084F8342019686FF31011A268402A2CD066
:101E3800802A27D00022E06842EAD002206942EADC
:101E4800D002606942EAD002A06942EAD002E069A1
:101E580042EAD002206A42EA10120A431A60226853
:101E6800184B1344184AA2FB03231B099B00E36584
:101E78002046FFF723FDE26D02F01F0101228A4090
:101E8800426056E74FF48042D5E71022D3E700239B
:101E980063609EE72046FFF709FEE36E00221A60A2
:101EA800236F626F5A60A2E70120EBE63F8010FEC5
:101EB8000010005C0F030F001000024028000240D1
:101EC80008540258F8ABFDA7CDCCCCCC002800F0C4
:101ED8003E8170B5044690F83400012800F039813D
:101EE800012084F8340094F83500C0B2012807D0E6
:101EF8004FF400636365002384F83430012070BD1B
:101F0800022084F83500002060652068924E934DC9
:101F1800A84218BFB0422FD01835A8422CD0183587
:101F2800A84229D01835A84226D01835A84223D06F
:101F38001835A84220D01835A8421DD005F5567589
:101F4800A84219D01835A84216D01835A84213D07F
:101F58001835A84210D01835A8420DD01835A84217
:101F68000AD01835A84207D01835A84204D0056809
:101F780025F00105056003E0056825F00105056009
:101F88002046FFF7C1FB23687349744A934218BF80
:101F98008B4238D01832934235D01832934232D01F
:101FA800183293422FD0183293422CD018329342D1
:101FB80029D01832934226D002F55672934222D085
:101FC800183293421FD0183293421CD018329342D1
:101FD80019D01832934216D01832934213D01832BF
:101FE800934210D0183293420DD01A6822F00E0294
:101FF80042F00A021A60236C93B12268136843F016
:10200800040313600CE01A6822F01E0242F0160264
:102018001A60236C23B12268136843F00803136025
:1020280023684D494D4A934218BF8B4242D018321B
:1020380093423FD0183293423CD01832934239D061
:102048001832934236D01832934233D01832934222
:1020580030D002F5567293422CD01832934229D0D0
:102068001832934226D01832934223D01832934222
:1020780020D0183293421DD0183293421AD0183209
:10208800934217D0364A934214D01432934211D057
:10209800143293420ED0143293420BD0143293422E
:1020A80008D01432934205D01432934202D014322D
:1020B80093420ED1236E1A6812F4803F03D01A6837
:1020C80042F480721A60E36E1BB11A6842F480729F
:1020D8001A6023682049214A934218BF8B4230D0A6
:1020E800183293422DD0183293422AD01832934294
:1020F80027D01832934224D01832934221D0183274
:1021080093421ED002F5567293421AD01832934267
:1021180017D01832934214D01832934211D0183283
:1021280093420ED0183293420BD01832934208D003
:102138001832934205D01A6842F001021A60002052
:10214800DDE61A6842F001021A600020D7E6012095
:1021580070470220D3E600BF10000240280002406A
:102168000854025870B50446FFF79AF9002C00F09D
:102178009181054694F83530DBB2022B06D08023D6
:102188006365002384F83430012070BD23688C49CE
:102198008C4A934218BF8B4230D0183293422DD0CC
:1021A800183293422AD01832934227D018329342D9
:1021B80024D01832934221D0183293421ED002F50F
:1021C800567293421AD01832934217D0183293425B
:1021D80014D01832934211D0183293420ED01832CC
:1021E80093420BD01832934208D01832934205D04C
:1021F8001A6822F00E021A60266809E01A6822F0AE
:102208001E021A602268536923F08003536126680E
:1022180023686B496B4A934218BF8B4242D01832ED
:1022280093423FD0183293423CD01832934239D06F
:102238001832934236D01832934233D01832934230
:1022480030D002F5567293422CD01832934229D0DE
:102258001832934226D01832934223D01832934230
:1022680020D0183293421DD0183293421AD0183217
:10227800934217D0544A934214D01432934211D047
:10228800143293420ED0143293420BD0143293423C
:1022980008D01432934205D01432934202D014323B
:1022A800934204D1226E136823F480731360236869
:1022B8004349444A934218BF8B422FD01832934265
:1022C8002CD01832934229D01832934226D0183293
:1022D800934223D01832934220D0183293421DD013
:1022E80002F55672934219D01832934216D018321A
:1022F800934213D01832934210D0183293420DD023
:10230800183293420AD01832934207D018329342B7
:1023180004D01A6822F001021A6003E01A6822F059
:1023280001021A60336813F0010F0ED0FFF7B8F8F6
:10233800431B052BF6D920236365032384F8353026
:10234800002384F8343001201FE723681C491D4A04
:10235800934218BF8B4239D01832934236D0183284
:10236800934233D01832934230D0183293422DD052
:10237800183293422AD01832934227D002F5567267
:10238800934223D01832934220D0183293421DD062
:10239800183293421AD01832934217D01832934207
:1023A80014D01832934211D0183293420ED0A16D36
:1023B800E36D03F01F02012393404B600DE000BF63
:1023C800100002402800024008540258A16DE36D35
:1023D80003F01F023F2393408B6023682E492F4A46
:1023E800934218BF8B4242D0183293423FD01832E2
:1023F80093423CD01832934239D01832934236D0A7
:102408001832934233D01832934230D002F55672C4
:1024180093422CD01832934229D01832934226D0B6
:102428001832934223D01832934220D01832934264
:102438001DD0183293421AD01832934217D0184A36
:10244800934214D01432934211D0143293420ED0D6
:10245800143293420BD01432934208D01432934270
:1024680005D01432934202D0143293420BD1636EDA
:10247800A26E5A60E36E33B11A6822F480721A6051
:10248800236F626F5A60012384F83530002084F886
:1024980034007AE6012078E6100002402800024065
:1024A80008540258002800F0288108B5024690F820
:1024B8003530DBB2022B03D080234365012008BDF1
:1024C8000368904890498B4218BF83420CBF012093
:1024D800002065D018318B4262D018318B425FD012
:1024E80018318B425CD018318B4259D018318B424D
:1024F80056D018318B4253D001F556718B424FD0CC
:1025080018318B424CD018318B4249D018318B424C
:1025180046D018318B4243D018318B4240D0183105
:102528008B423DD018318B423AD0196821F00E0108
:1025380019601368734874498B4218BF83426AD084
:1025480072498B4267D018318B4264D018318B4264
:1025580061D018318B425ED018318B425BD0183174
:102568008B4258D001F556718B4254D018318B42AA
:1025780051D018318B424ED018318B424BD0183184
:102588008B4248D018318B4245D018318B4242D00B
:1025980018318B423FD0196821F0010119603EE0E3
:1025A800042182F8351080BB584A93422DD0183246
:1025B80093422AD01832934227D01832934224D01B
:1025C8001832934221D0183293421ED002F5567227
:1025D80093421AD01832934217D01832934214D02B
:1025E8001832934211D0183293420ED018329342C7
:1025F8000BD01832934208D01832934205D01A688B
:1026080022F001021A60002059E71A6822F001023C
:102618001A60002053E7196821F001011960136856
:10262800384839498B4218BF834242D018318B420F
:102638003FD018318B423CD018318B4239D01831F9
:102648008B4236D018318B4233D018318B4230D080
:1026580001F556718B422CD018318B4229D0183194
:102668008B4226D018318B4223D018318B4220D090
:1026780018318B421DD018318B421AD018318B4239
:1026880017D023498B4214D014318B4211D0143106
:102698008B420ED014318B420BD014318B4208D0B0
:1026A80014318B4205D014318B4202D014318B4245
:1026B80017D1116E0B6823F480730B60906DD36D86
:1026C80003F01F0101238B404360536E916E5960E4
:1026D800D36E33B1196821F480711960136F516F8B
:1026E8005960012382F83530002382F83430136DA5
:1026F8002BB1104698470020E1E6012070470020E2
:10270800DDE600BF10000240280002404000024001
:1027180008540258F0B583B00446002301937D4B5A
:102728001D687D4BA3FB0535AD0A876D3E68D7F85C
:1027380000C0036879497A48834218BF8B420CBFAE
:102748000120002061D0774A93425ED0183293422C
:102758005BD01832934258D01832934255D0183271
:10276800934252D0183293424FD002F55672934298
:102778004BD01832934248D01832934245D0183281
:10278800934242D0183293423FD0183293423CD001
:102798001832934239D01832934236D06249634A8C
:1027A800934218BF8B4212D0614A93420FD0143221
:1027B80093420CD01432934209D01432934206D07B
:1027C8001432934203D01432934240F061821A6863
:1027D800E16D01F01F010420884010EA0C0F00F0A1
:1027E800A78212F0040F00F0A382786012F4004F61
:1027F80000F05A8212F4803F40F05082A36C002B04
:1028080000F046822046984742E2E26D02F01F013E
:1028180008228A40324241D070BB424A93422BD0B0
:102828001832934228D01832934225D01832934256
:1028380022D0183293421FD0183293421CD002F58E
:102848005672934218D01832934215D018329342D8
:1028580012D0183293420FD0183293420CD018324B
:10286800934209D01832934206D01832934203D0CB
:102878001A68C2F3C00202E01A68C2F380026AB1A1
:102888001A6822F004021A60E36D03F01F0208239D
:102898009340BB60636D43F001036365E26D02F032
:1028A8001F0226FA02F313F0010F47D023681B48D2
:1028B8001B498B4218BF83423CD018318B4239D018
:1028C80018318B4236D018318B4233D018318B42B5
:1028D80030D018318B422DD018318B422AD001F5D7
:1028E80056718B4226D018318B4223D018318B4237
:1028F80020D018318B421DD018318B421AD0183194
:102908008B4217D018318B4214D018318B4211D01A
:102918001B6813E004000024B5814E1B1000024020
:102928002800024040000240085402581C54025833
:10293800305402585B6913F0800F3BD1E36D03F00C
:102948001F03042202FA03F333423FD02268964859
:1029580096498A4218BF824234D018318A4231D00F
:1029680018318A422ED018318A422BD018318A4227
:1029780028D018318A4225D018318A4222D001F550
:1029880056718A421ED018318A421BD018318A42A9
:1029980018D018318A4215D018318A4212D018310D
:1029A8008A420FD018318A420CD018318A4209D095
:1029B80013680BE001239340BB60636D43F002038F
:1029C8006365BBE7126812F0020F3DD1E36D03F0B7
:1029D8001F03102202FA03F333425FD022687248C1
:1029E80072498A4218BF824234D018318A4231D0A3
:1029F80018318A422ED018318A422BD018318A4297
:102A080028D018318A4225D018318A4222D001F5BF
:102A180056718A421ED018318A421BD018318A4218
:102A280018D018318A4215D018318A4212D018317C
:102A38008A420FD018318A420CD018318A4209D004
:102A48001268C2F3800208E0BB60636D43F00403C0
:102A58006365BBE71268C2F3C002FAB1BB602368C2
:102A68001A6812F4802F0DD01B6813F4002F04D1BC
:102A7800236C9BB12046984710E0A36C73B12046A5
:102A880098470BE01A6812F4807F03D11A6822F085
:102A980008021A60236C0BB120469847E36D03F0D7
:102AA8001F03202202FA03F3334200F093802268C6
:102AB8003D483E498A4218BF82422ED018318A4288
:102AC8002BD018318A4228D018318A4225D01831A3
:102AD8008A4222D018318A421FD018318A421CD02B
:102AE80001F556718A4218D018318A4215D018312A
:102AF8008A4212D018318A420FD018318A420CD03B
:102B080018318A4209D018318A4206D018318A42CF
:102B180003D01268C2F3400202E01268C2F3001246
:102B2800002A57D0BB6094F83530DBB2042B0ED0A6
:102B380023681A6812F4802F3AD01B6813F4002F08
:102B48002DD1636C002B45D02046984742E022687F
:102B5800136823F0160313602268536923F0800377
:102B68005361236CBBB12268136823F00803136018
:102B7800E36D03F01F023F239340BB60012384F8F9
:102B88003530002384F83430236D002B00F080802A
:102B9800204698477CE0A36C002BE4D1E8E7E36B80
:102BA800C3B12046984715E01000024028000240B3
:102BB8001A6812F4807F09D11A6822F010021A608C
:102BC800012384F83530002384F83430E36B0BB1EB
:102BD80020469847636D002B5AD0636D13F0010FA0
:102BE80052D0042384F8353023689649964A934294
:102BF80018BF8B422FD0183293422CD018329342F0
:102C080029D01832934226D01832934223D0183252
:102C1800934220D0183293421DD002F55672934247
:102C280019D01832934216D01832934213D0183262
:102C3800934210D0183293420DD0183293420AD0E2
:102C48001832934207D01832934204D01A6822F0FF
:102C580001021A6003E01A6822F001021A60019B5F
:102C680001330193AB4204D823681B6813F0010FAA
:102C7800F5D123681B6813F0010F0BD0032384F8E8
:102C88003530002384F83430E36C0BB12046984784
:102C980003B0F0BD012384F83530F2E7236C002B34
:102CA800F6D020469847F3E712F0200F3AD1236870
:102CB8006449654A934218BF8B422FD01832934219
:102CC8002CD01832934229D01832934226D0183289
:102CD800934223D01832934220D0183293421DD009
:102CE80002F55672934219D01832934216D0183210
:102CF800934213D01832934210D0183293420DD019
:102D0800183293420AD01832934207D018329342AD
:102D180004D01A6822F004021A6003E01A6822F04C
:102D280008021A60236C002BB2D020469847AFE700
:102D38000220884010EA0C0F60D012F0020F5DD01C
:102D4800786012F4004F0ED012F4803F05D1636C06
:102D5800002B9DD0204698479AE7E36B002B97D02D
:102D68002046984794E712F0200F40D12368354950
:102D7800354A934218BF8B422FD0183293422CD039
:102D88001832934229D01832934226D018329342EF
:102D980023D01832934220D0183293421DD002F526
:102DA8005672934219D01832934216D01832934271
:102DB80013D01832934210D0183293420DD01832E3
:102DC80093420AD01832934207D01832934204D063
:102DD8001A6822F00A021A6003E01A6822F0140244
:102DE8001A60012384F83530002384F83430E36B0B
:102DF800002B3FF44DAF2046984749E7082000FADA
:102E080001F111EA0C0F3FF443AF12F0080F3FF441
:102E18003FAF1A6822F00E021A60E36D03F01F0339
:102E2800012202FA03F37B60626584F835200023EF
:102E380084F83430E36C002B3FF42AAF20469847DF
:102E480026E700BF1000024028000240002837D0C3
:102E580010B5044690F86130002B2CD0022384F87A
:102E6800613021680A68174B13406268E0690243C1
:102E780013430B6021684A6B134B1340A268A06987
:102E8800024313434B632268136C6FF30F03E1682B
:102E98000B43136421684B6B23F440132069626968
:102EA800520542EA005213434B6300206066012337
:102EB80084F8613010BD80F86030FDF795FDCDE7EE
:102EC80001207047BFFFF8FFF8FEFFFF90F8602071
:102ED800012A74D030B40346012280F8602002220F
:102EE80080F86120C1EBC10003EB8000C46A026B6B
:102EF80044EA0242856B42EA0552C06B42EA4052FC
:102F0800A4F10900012820D9C1EBC10003EB80001E
:102F1800406B42EA006259BB1C68656A2948284030
:102F2800104360621868C1EBC10203EB8202946A25
:102F38008461D26A093A012A10D9012283F86120F2
:102F4800002083F8600030BC7047C1EBC10003EB80
:102F58008000406B00F07F400243DCE7C1EBC10119
:102F680003EB81014A6B196822F07F428A62E4E729
:102F78000B2C1BD0144D1C68E06920EA05000243A5
:102F8800E2611868C1EBC10203EB8202946A046132
:102F9800D26A093A012AD0D8C1EBC10103EB8101F9
:102FA8004A6B196822F07F420A62C6E7C1EBC1008A
:102FB80003EB8000006C42EA8042044DDBE702200C
:102FC800704700BFF0FFCC000F0033FF0F003FFF3A
:102FD80070B582B000236EE085685E000324B440BB
:102FE80025EA0405CC68B4402C438460456825EA8A
:102FF8000C054C68C4F300149C402C4344606DE0FD
:10300800DD08083550F8254003F0070C4FEA8C0C12
:103018004FF00F0E0EFA0CFE24EA0E0E0C6904FA9D
:103028000CF444EA0E0440F825406FE0092400E05F
:10303800002404FA0EF42C430CF1020C6B4D45F8F5
:103048002C404FF0B0442568D44325EA0206D1F855
:1030580004C01CF4801F01D042EA05064FF0B045B9
:103068002E606D6804EA0506D1F804C01CF4001F40
:1030780001D042EA05064FF0B0456E60D5F884509D
:1030880004EA0506D1F804C01CF4003F01D042EA66
:1030980005064FF0B045C5F88460D5F880502C403F
:1030A8004E6816F4803F01D042EA05044FF0B04262
:1030B800C2F8804001330A6832FA03F400F09380C2
:1030C8004FF0010C0CFA03FC1CEA0202F2D04C6827
:1030D80004F00304013C012C7FF67EAF4C6804F039
:1030E8000304032C0CD0C4685D004FF0030C0CFAE9
:1030F80005FC24EA0C0C8C68AC4044EA0C04C4605F
:103108004C6804F00304022C3FF47AAF04684FEAD9
:10311800430E4FF0030C0CFA0EFC24EA0C0C4C681E
:1031280004F0030404FA0EF444EA0C0404604C6846
:1031380014F4403FBED02E4CD4F8F45045F00205AC
:10314800C4F8F450D4F8F44004F002040194019C4B
:103158004FEA930C0CF10205244C54F8255003F067
:10316800030E4FEA8E0E0F2404FA0EF425EA040526
:10317800204CA0423FF45CAF04F58064A04222D00A
:1031880004F58064A04220D004F58064A0421ED0DB
:1031980004F58064A0421CD004F58064A0421AD0D3
:1031A80004F58064A04218D004F58064A04216D0CB
:1031B80004F58064A04214D004F58064A0423FF472
:1031C80035AF0A2435E7012433E7022431E7032425
:1031D8002FE704242DE705242BE7062429E70724F5
:1031E80027E7082425E702B070BD00BF0004005897
:1031F80000440258000002580369194201D0012016
:103208007047002070470AB18161704709048161E5
:103218007047000070B54D680368DC68C4F30B4460
:1032280025444FEAC21C03EBC213D3F8884004F4C8
:103238007044C3F888400B680468E668C6F30B4618
:103248003344013304EBC21443EA0543C4F888301D
:10325800CD680368DC68C4F30A04254403EBC21391
:10326800D3F88C4004F47044C3F88C408B6804682D
:10327800E668C6F30A0E7344013304EBC21443EA4A
:103288000543C4F88C30036803EBC213D3F89440A9
:1032980024F00704C3F89440036803EBC2130C69D5
:1032A800C3F8944091F831E091F832608D69036871
:1032B80003EBC213D3F89C400024C3F89C4091F858
:1032C800303043EA0E2343EA0643066806EBC21E83
:1032D80043EA0563CEF89C300EF1840E036803EBD5
:1032E800C213D3F8985025F0FF05C3F89850036827
:1032F80003EBC2134D69C3F89850036803EBC2137C
:10330800D3F8A0602C4D3540C3F8A0500D6A03686F
:1033180003EBC213CE693543C3F8A050036803EB2F
:10332800C213D3F8AC50C3F8AC40036803EBC21324
:103338004A6AC3F8AC200B69072B05D8DFE803F00D
:103348003A32343634040438012503686344D3F828
:10335800B02002F0E022C3F8B0208B6A05FB03F42A
:103368004B680A689B1A05FB03F30733026862443B
:1033780043EA0443C2F8B03003686344D3F8B42086
:103388006FF30A02C3F8B42003686344CA6AC3F837
:10339800B42003686344D3F8842042F00102C3F8E0
:1033A800842070BD0325D0E70225CEE70225CCE7AF
:1033B8000225CAE70425C8E7F8F8FFFF002875D0FA
:1033C80010B5044690F8A130002B6AD0022384F887
:1033D800A1302268936923F07043936121688A6958
:1033E8006368A0680343E068034320690343134309
:1033F8008B6121688A682E4B1A408A60206882682F
:10340800A169D4F814C041EA0C410A4382602168DA
:10341800CA681A40CA602068C268216AD4F81CC009
:1034280041EA0C410A43C26021680A691A400A61EC
:1034380020680269A16AD4F824C041EA0C410A4311
:10344800026121684A6913404B61E06A21684B694F
:10345800226B42EA004213434B6194F8350094F81A
:1034680036301B042168CA6A02F07F42CA622168AA
:10347800CA6A43EA002394F8340003431343CB6237
:103488002268536B43F0060353632268936943F041
:10349800010393610020C4F8A400012384F8A1303B
:1034A80010BD80F8A03003F08DFB8FE70120704736
:1034B80000F800F0F8B590F8A030012B2CD00446A5
:1034C8000D461646012780F8A070022380F8A13027
:1034D8004FF0340C0CFB020C0CF1380C8E46BEE895
:1034E8000F00ACE80F00BEE80F00ACE80F00BEE824
:1034F8000F00ACE80F00DEF80030CCF800303246A0
:1035080029462046FFF786FE23685F6284F8A1708B
:10351800002084F8A000F8BD0220FCE7134BDB680C
:1035280013F0040F07D1114BDB6803F00703834244
:103538001AD00120704710B50C4AD36823F007034E
:103548000343D360FDF7ACFF0446084B5B6813F4F4
:10355800005F07D1FDF7A4FF001BB0F57A7FF4D90F
:10356800012000E0002010BD0020704700480258EC
:103578002DE9F84305460F4616469946DDF82080A2
:103588002C68A4683C4214BF4FF0010C4FF0000CAB
:10359800B44514D0B8F1FF3FF2D0FDF781FFA0EB9E
:1035A8000900404502D8B8F1000FE9D1042385F895
:1035B80041306B6C43F001036B64012000E0002094
:1035C800BDE8F8838164704770B582B00446FDF7A2
:1035D80067FF002C45D0064694F84130002B37D0C1
:1035E80025682A6822F4F852A168013942EA0122C2
:1035F8002A60A36C00933346002220212046FFF75F
:10360800B7FF18BB21680B68174A1A406568E3685A
:1036180043EA0563E5692B43256A2B431A430A608D
:1036280021684A68114B13402569626942EA0542DC
:10363800A5692A4313434B602268136843F00103CA
:10364800136000236364012384F8413002B070BD25
:103658002046FDF785FC41F288312046FFF7B2FF8E
:10366800BEE70120F2E700BF2FFFFF00FEF8E0FFF2
:10367800002800F0398338B50446036813F0010FB9
:1036880025D0944A136903F03803926A102B15D099
:10369800182B0FD06368B3F5803F3FD0002B53D170
:1036A8008C4B1A6822F480321A601A6822F480223D
:1036B8001A6038E002F00302022AEBD1854B1B683E
:1036C80013F4003F03D06368002B00F00F832368D6
:1036D80013F0020F00F0A1807E4A1369926A13F07A
:1036E80038035AD0182B55D0E368002B00F0DE8041
:1036F80078490A6822F0190213430B60FDF7D0FEDF
:103708000546744B1B6813F0040F40F0AD80FDF7BD
:10371800C7FE401B0228F4D90320EEE26D4A136865
:1037280043F48033136063682BB3FDF7B9FE054695
:10373800684B1B6813F4003FC9D1FDF7B1FE401B6D
:103748006428F5D90320D8E2B3F5A02F09D0614B3E
:103758001A6822F480321A601A6822F480221A60E9
:10376800E1E75C4B1A6842F480221A601A6842F456
:1037780080321A60D7E7FDF793FE0546554B1B6864
:1037880013F4003FA3D0FDF78BFE401B6428F5D946
:103798000320B2E212F0030FA6D14E4B1B6813F0C0
:1037A800040F03D0E368002B00F0A282494A136893
:1037B80023F01903E1680B431360FDF771FE05461A
:1037C800444B1B6813F0040F06D1FDF769FE401B3C
:1037D8000228F5D9032090E2FDF77CFE41F20303AD
:1037E800984212D82269402A07D03A494B6823F4F4
:1037F8007C3343EA02334B600FE0364A536823F4C4
:103808007C3343F40033536007E0324A536823F0B3
:10381800FE43216943EA01635360236813F0100FE4
:1038280000F088802B4A136903F03803926A082B4A
:1038380056D0182B50D0E369002B00F0B880254AE9
:10384800136843F080031360FDF72AFE0546214BF9
:103858001B6813F4807F40F08880FDF721FE401B31
:103868000228F4D9032048E2FDF734FE41F20303AD
:10387800984212D82269402A07D016494B6823F487
:103888007C3343EA02334B60C7E7124A536823F498
:103898007C3343F400335360BFE70E4A536823F088
:1038A800FE43216943EA01635360B6E7094A136896
:1038B80023F001031360FDF7F3FD0546054B1B6874
:1038C80013F0040FA9D0FDF7EBFD401B0228F5D932
:1038D800032012E20044025802F00302012AAAD18E
:1038E800A14B1B6813F4807F03D0E369802B40F061
:1038F8000182FDF7EFFD41F20303984212D8226AD4
:10390800202A07D098494B6823F0F84343EA82639A
:103918004B600FE0944A536823F0F84343F0804328
:10392800536007E0904AD36823F07C53216A43EA46
:103938000163D360236813F0080F60D06369002B1C
:1039480049D0894A536F43F001035367FDF7A8FD37
:103958000546854B5B6F13F0020F50D1FDF7A0FDB4
:10396800401B0228F5D90320C7E1FDF7B3FD41F25A
:103978000303984212D8226A202A07D07A494B6852
:1039880023F0F84343EA82634B60D3E7764A5368EF
:1039980023F0F84343F080435360CBE7724AD3687F
:1039A80023F07C53216A43EA0163D360C2E76E4A7D
:1039B800136823F080031360FDF772FD05466A4B18
:1039C8001B6813F4807FB5D0FDF76AFD401B022801
:1039D800F5D9032091E1644A536F23F0010353673B
:1039E800FDF75EFD0546604B5B6F13F0020F06D0D6
:1039F800FDF756FD401B0228F5D903207DE1236819
:103A080013F0200F29D0A3699BB1574A136843F4D8
:103A180080531360FDF744FD0546534B1B6813F4B0
:103A2800005F1AD1FDF73CFD401B0228F5D90320A1
:103A380063E14D4A136823F480531360FDF730FDAA
:103A48000546494B1B6813F4005F06D0FDF728FDB7
:103A5800401B0228F5D903204FE1236813F0040F17
:103A680021D1636A002B00F047813F4A126902F0B6
:103A78003802182A00F0EE80022B79D03A4A1368EF
:103A880023F080731360FDF70BFD0446364B1B686B
:103A980013F0007F00F0DC80FDF702FD001B022818
:103AA800F4D9032029E1314A136843F48073136081
:103AB800FDF7F6FC05462D4B1B6813F4807F06D1F5
:103AC800FDF7EEFC401B6428F5D9032015E1A36837
:103AD800012B0AD00BBB244B1A6F22F001021A6784
:103AE8001A6F22F004021A6704E01F4A136F43F0AA
:103AF80001031367A36833B3FDF7D2FC05461A4BDD
:103B08001B6F13F0020FACD1FDF7CAFC401B41F24A
:103B180088339842F3D90320EFE0052B09D0124BE4
:103B28001A6F22F001021A671A6F22F004021A674C
:103B3800E0E70D4B1A6F42F004021A671A6F42F061
:103B480001021A67D6E7FDF7ABFC0546064B1B6F6B
:103B580013F0020F85D0FDF7A3FC401B41F2883318
:103B68009842F3D90320C8E000440258004802589C
:103B7800694A136823F080731360FDF791FC0546CA
:103B8800654B1B6813F0007F06D0FDF789FC401BCE
:103B98000228F5D90320B0E05F4B996A5F4A0A40D2
:103BA800A16AE06A41EA00110A439A62226B013A6B
:103BB800C2F30802616B0139490289B20A43A16B59
:103BC8000139090401F4FE010A43E16B01390906D0
:103BD80001F0FE410A431A63DA6A22F00102DA624E
:103BE8005A6B6FF3CF02A16C42EAC1025A63DA6AD8
:103BF80022F00C02216C0A43DA62DA6A22F002022D
:103C0800616C0A43DA62DA6A42F48032DA62DA6AAA
:103C180042F40032DA62DA6A42F48022DA62DA6A5C
:103C280042F00102DA621A6842F080721A60FDF707
:103C380037FC0446384B1B6813F0007F06D1FDF7AC
:103C48002FFC001B0228F5D9032056E0002054E081
:103C5800002052E0304A916A106B012B4ED001F0DF
:103C68000303A26A93424BD1C1F30511E36A994257
:103C780048D1C0F30802236B013B9A4244D1C0F3F8
:103C88004622636B013B9A4240D1C0F30642A36BC4
:103C9800013B9A423CD1C0F30660E36B013B98427A
:103CA80038D11D4B5B6BC3F3CC03A26C9A4201D194
:103CB800002022E0184AD36A23F00103D362FDF7FB
:103CC800EFFB0546FDF7ECFBA842FBD0124A536B0D
:103CD8006FF3CF03A16C43EAC1035363D36A43F084
:103CE8000103D362002008E001207047012004E0AE
:103CF800012002E0012000E0002038BD0120FCE79F
:103D08000120FAE70120F8E70120F6E70120F4E7AF
:103D18000120F2E70120F0E7004402580CFCFFFF05
:103D2800F8B5814B1B6903F03803102B00F0F480C1
:103D3800182B0FD0002B40F0F2807B4B1B6813F040
:103D4800200F00F0EE80784B1B68C3F3C103774C5B
:103D5800DC40E2E0744B9D6A05F003059C6AC4F3FD
:103D68000514D86A00F001005B6BC3F3CC0303FBB6
:103D780000F0FCF743FB0646002C00F0CE80012D36
:103D880056D0022D00F08480002D40F0A380664BB1
:103D98001B6813F0200F29D0634F3B68C3F3C1039E
:103DA8006248D840FCF72AFB05462046FCF726FB6C
:103DB80001462846FCF72EFC0446386BC0F3080081
:103DC800FCF71CFB05464FF064513046FCF76EFBD0
:103DD80001462846FCF762FA4FF07E51FCF75EFA7E
:103DE80001462046FCF762FB044642E02046FCF709
:103DF80005FB01464E48FCF70DFC04464A4B186B80
:103E0800C0F30800FCF7FAFA05464FF06451304653
:103E1800FCF74CFB01462846FCF740FA4FF07E5170
:103E2800FCF73CFA01462046FCF740FB044620E03C
:103E38002046FCF7E3FA01463E48FCF7EBFB044654
:103E4800394B186BC0F30800FCF7D8FA05464FF059
:103E580064513046FCF72AFB01462846FCF71EFA57
:103E68004FF07E51FCF71AFA01462046FCF71EFB7C
:103E780004462D4B1B6BC3F34623581CFCF7BEFAB4
:103E880001462046FCF7C6FBFCF760FC044644E00C
:103E98002046FCF7B3FA01462748FCF7BBFB04466B
:103EA800214B186BC0F30800FCF7A8FA05464FF041
:103EB80064513046FCF7FAFA01462846FCF7EEF959
:103EC8004FF07E51FCF7EAF901462046FCF7EEFA7E
:103ED8000446CEE72046FCF791FA01461548FCF760
:103EE80099FB0446104B186BC0F30800FCF786FAE0
:103EF80005464FF064513046FCF7D8FA014628468B
:103F0800FCF7CCF94FF07E51FCF7C8F90146204682
:103F1800FCF7CCFA0446ACE7084C2046F8BD084C40
:103F2800FBE7024CF9E700BF004402580090D003B9
:103F38000024744C0024744A20BCBE4B40787D0198
:103F480000093D00002800F0328170B50D46044696
:103F58009B4B1B6803F00F038B420BD2984A1368E4
:103F680023F00F030B431360136803F00F038B4216
:103F780040F01F81236813F0040F0CD02269914B85
:103F88009B6903F070039A4205D98E498B6923F027
:103F980070031A438A61236813F0080F0CD0626912
:103FA800884BDB6903F070039A4205D98549CB69D0
:103FB80023F070031A43CA61236813F0100F0CD062
:103FC800A269804BDB6903F4E0639A4205D97D4915
:103FD800CB6923F4E0631A43CA61236813F0200F06
:103FE8000CD0E269774B1B6A03F070039A4205D93B
:103FF80074490B6A23F070031A430A62236813F0AA
:10400800020F0CD0E2686F4B9B6903F00F039A42D2
:1040180005D96C498B6923F00F031A438A61236819
:1040280013F0010F41D0674A936923F47063A168C4
:104038000B4393616368022B0AD0032B27D0012B13
:104048002CD0604A126812F0040F06D10120ADE0AE
:10405800126812F4003F00F0AE805A490A6922F053
:10406800070213430B61FDF71BFA0646554B1B6904
:1040780003F038036268B3EBC20F16D0FDF710FAED
:10408800801B41F288339842F0D903208EE04D4AD4
:10409800126812F0007FE0D1012087E0494A1268D7
:1040A80012F4807FD9D1012080E0236813F0020F39
:1040B8000CD0E268434B9B6903F00F039A4205D288
:1040C80040498B6923F00F031A438A613C4B1B68F4
:1040D80003F00F03AB420AD9394A136823F00F03E0
:1040E8002B431360136803F00F03AB4265D12368B9
:1040F80013F0040F0CD02269324B9B6903F0700354
:104108009A4205D22F498B6923F070031A438A61BA
:10411800236813F0080F0CD062692A4BDB6903F09F
:1041280070039A4205D22749CB6923F070031A43DA
:10413800CA61236813F0100F0CD0A269214BDB6908
:1041480003F4E0639A4205D21E49CB6923F4E06385
:104158001A43CA61236813F0200F0CD0E269194B87
:104168001B6A03F070039A4205D216490B6A23F0C2
:1041780070031A430A62FFF7D3FD12498B69C3F330
:104188000323114AD35C03F01F03D8408B6903F063
:104198000F03D35C03F01F0320FA03F30B4A1360E9
:1041A8000B4B18600B4B1868FDF718F970BD012010
:1041B80070470120FAE70120F8E70120F6E700BF81
:1041C80000200052004402586C7A000800000024C5
:1041D800040000240C00002408B5FFF7A1FD0B4AD9
:1041E8009369C3F303230A49CB5C03F01F0320FA46
:1041F80003F3926902F00F02885C00F01F0023FAB3
:1042080000F0044A1060044A136008BD00440258D4
:104218006C7A0008000000240400002408B5FFF7A9
:10422800DBFF054BDB69C3F30213044AD35C03F0DD
:104238001F03D84008BD00BF004402586C7A00082C
:1042480008B5FFF7C9FF054BDB69C3F30223044A2E
:10425800D35C03F01F03D84008BD00BF00440258D8
:104268006C7A0008404B9B6A03F00303032B79D058
:1042780070B505460E463C4A136823F08063136008
:10428800FDF70EF90446384B1B6813F0006F06D093
:10429800FDF706F9031B022BF5D9032070BD324B3D
:1042A8009A6A22F47C32296842EA01329A626A6880
:1042B800013AC2F30802A9680139490289B20A43DE
:1042C800E9680139090401F4FE010A432969013941
:1042D800090601F0FE410A439A63DA6A22F0C00235
:1042E80069690A43DA62DA6A22F02002A9690A4394
:1042F800DA62DA6A22F01002DA62DA6B6FF3CF025E
:10430800E96942EAC102DA63DA6A42F01002DA6263
:10431800C6B91A46DB6A43F40023D362124A13680B
:1043280043F080631360FDF7BBF804460E4B1B682F
:1043380013F0006F14D1FDF7B3F8001B0228F5D96C
:104348000320ABE7012E05D0074AD36A43F40013D4
:10435800D362E3E7044AD36A43F48013D362DDE708
:1043680000209BE70120704700440258404B9B6A9D
:1043780003F00303032B79D070B505460E463C4A7B
:10438800136823F080531360FDF78AF80446384B0E
:104398001B6813F0005F06D0FDF782F8031B022BA1
:1043A800F5D9032070BD324B9A6A22F07C722968D5
:1043B80042EA01529A626A68013AC2F30802A9689D
:1043C8000139490289B20A43E9680139090401F44B
:1043D800FE010A4329690139090601F0FE410A4331
:1043E8001A64DA6A22F4406269690A43DA62DA6AAC
:1043F80022F40072A9690A43DA62DA6A22F4807246
:10440800DA625A6C6FF3CF02E96942EAC1025A6470
:10441800DA6A42F48072DA62C6B91A46DB6A43F491
:104428008003D362124A136843F080531360FDF788
:1044380037F804460E4B1B6813F0005F14D1FDF7E4
:104448002FF8001B0228F5D90320ABE7012E05D071
:10445800074AD36A43F08073D362E3E7044AD36A16
:1044680043F40003D362DDE700209BE70120704797
:1044780000440258F8B50446036813F0006F30D0C2
:10448800836EB3F5001F26D00ED8ABB1B3F5801FED
:1044980007D102210830FFF7E5FE054695B12E4603
:1044A80021E0012635461EE0B3F5401F01D1002565
:1044B80008E00126354616E0984AD36A43F40033EB
:1044C800D3620025954A136D23F44013A16E0B4364
:1044D8001365002607E002212830FFF747FF05464D
:1044E800DCE700263546236813F4807F14D0A36DDB
:1044F800042B31D8DFE803F0032229080800874A93
:10450800D36A43F40033D3624DBB844A136D23F05E
:104518000703A16D0B431365236813F4007F38D09C
:10452800E36D802B4AD01FD833B3402B19D100211B
:1045380004F10800FFF796FE054622E0002104F189
:104548000800FFF78FFE0546DEE7002104F128008A
:10455800FFF70CFF0546D7E701263546DCE72E4670
:10456800DAE70126354614E0C02B0AD0B3F5807F80
:1045780007D0012635460CE0684AD36A43F4003375
:10458800D36215BB654A136D23F4E073E16D0B43E9
:104598001365236813F4806F3CD0D4F8A830B3F5C2
:1045A800800F2FD016D8F3B1B3F5001F0FD100211B
:1045B80004F10800FFF756FE054619E0002104F152
:1045C8002800FFF7D3FE0546DBE72E46E1E7012684
:1045D80035461FE0B3F5C00F0AD0B3F5000F07D07A
:1045E8000126354616E04D4AD36A43F40033D362B8
:1045F8007DB94A4A936D23F46003D4F8A8100B439D
:10460800936507E0002104F12800FFF7AFFE054697
:10461800EEE72E46236813F4006F2BD0D4F8AC30A5
:10462800B3F1007F53D00DD8ABB1B3F1807F06D181
:10463800002104F10800FFF715FE054610E00126E9
:10464800354617E0B3F1407F0AD0B3F1806F07D049
:10465800012635460EE0314AD36A43F40033D3626B
:10466800002D3BD12D4A936D23F0E063D4F8AC10B4
:104678000B439365236813F0007F13D0E36C202B62
:1046880036D030D833B1102B2AD1244AD36A43F418
:104698000033D3629DBB214AD36C23F03003E16C15
:1046A8000B43D364236813F4805F47D0236EB3F5BC
:1046B800005F00F08D8027D893B3B3F5805F20D1D9
:1046C800002104F10800FFF7CDFD05462DE000218B
:1046D80004F12800FFF74AFE0546C1E72E46C9E760
:1046E80001263546DEE7302BD4D001263546D9E7FA
:1046F800022104F10800FFF7B5FD0546CAE72E467A
:10470800D0E70126354619E0B3F5405F0DD0B3F583
:10471800804F0AD00126354610E000BF00440258F9
:10472800774AD36A43F40033D362002D57D1744AD1
:10473800136D23F4E043216E0B431365236813F4D0
:10474800005F17D0636EB3F5003F59D04CD843B122
:10475800B3F5803F45D1012104F10800FFF782FD40
:104768000546002D53D1664A136D23F4E023616E8C
:104778000B431365236813F4804F19D0D4F8B03075
:10478800B3F1005F54D047D843B1B3F1805F40D153
:10479800012104F10800FFF765FD0546002D4ED103
:1047A800574A936D23F0E043D4F8B0100B43936558
:1047B800236813F4004F51D0236FB3F1805F40D0CA
:1047C800B3F1005F55D0002B40D00126354645E0B7
:1047D800002104F12800FFF7C9FD0546A5E72E468C
:1047E800ACE701263546C5E7B3F5802FB9D0B3F558
:1047F800A02FB6D0B3F5403FB3D001263546B9E770
:10480800012104F12800FFF7B1FD0546A9E72E466E
:10481800B0E701263546CBE7B3F1804FBED0B3F100
:10482800A04FBBD0B3F1405FB8D001263546BFE7F3
:10483800012104F12800FFF799FD0546AEE72E4651
:10484800B6E72F4AD36A43F40033D362C5B92C4A7A
:10485800136D23F04053216F0B431365236813F046
:10486800807F1CD0A36C032B44D8DFE803F0100B27
:104878003C10012104F10800FFF7F4FC0546E5E7C8
:104888002E46EBE71E4AD36A43F40033D362A5BB36
:104898001B4AD36C23F00303A16C0B43D364236836
:1048A80013F4800F2ED1236813F0010F00F0A680B7
:1048B800E36F282B00F2A080DFE803F08E9E9E9E17
:1048C8009E9E9E9E889E9E9E9E9E9E9E979E9E9E1D
:1048D8009E9E9E9E8E9E9E9E9E9E9E9E8E9E9E9E10
:1048E8009E9E9E9E8E00022104F10800FFF7BAFCEE
:1048F8000546CCE701263546D1E72E46CFE700BF6F
:1049080000440258584A136843F480731360FCF754
:10491800C7FD0746544B1B6813F4807F05D1FCF78D
:10492800BFFDC01B6428F5D90325002D4AD14F4B84
:104938001B6FD4F8B420534013F4407F0CD04B4B7A
:104948001A6F22F44072196F41F480311967196F98
:1049580021F4803119671A67D4F8B430B3F5807F31
:1049680015D08DBBD4F8B43003F44072B2F5407F53
:104978001ED03E4A136923F47C5313613B490B6FE5
:10498800D4F8B420C2F30B0213430B678BE7FCF790
:1049980087FD0746354B1B6F13F0020FE1D1FCF77B
:1049A8007FFDC01B41F288339842F3D90325D8E72D
:1049B8002E48026922F47C522D4901EA131313434D
:1049C8000361DBE72E466EE72E466CE7012104F112
:1049D8000800FFF747FC0546E5B9244A536D23F064
:1049E8003803E16F0B43536508E0012104F1280007
:1049F800FFF7BCFC0546EFE701263546236813F0B0
:104A0800020F17D0A36F052B29D8DFE803F00B0599
:104A1800210B0B0B2E46F1E7012104F10800FFF7EB
:104A280021FC0546F5B9114A536D23F00703A16F20
:104A38000B435365236813F0040F2CD0D4F894303B
:104A4800052B00F2DC80DFE803F01B15D31B1B1BD2
:104A5800012104F12800FFF789FC0546E2E7012659
:104A68003546E7E72E46E5E7004802580044025875
:104A7800CFFFFF00012104F10800FFF7F3FB054613
:104A8800002D40F0BF80B34A936D23F00703D4F89C
:104A980094100B439365236813F0200F1DD0D4F8AE
:104AA8009030B3F1005F00F0C18000F2B0804BB1EC
:104AB800B3F1805F40F0A880002104F10800FFF7FF
:104AC800D1FB0546002D40F0B880A24A536D23F073
:104AD800E043D4F890100B435365236813F0400F5C
:104AE8001DD0D4F89C30B3F5006F00F0BA8000F206
:104AF800A9804BB1B3F5806F40F0A180002104F18B
:104B08000800FFF7AFFB0546002D40F0B180914A41
:104B1800936D23F4E053D4F89C100B4393652368FA
:104B280013F0800F1DD0D4F8A030B3F5804F00F0FB
:104B3800B38000F2A2804BB1B3F5005F40F09A80D9
:104B4800002104F10800FFF78DFB0546002D40F019
:104B5800AA80804A936D23F46043D4F8A0100B43D5
:104B68009365236813F0080F0DD0D4F88430B3F59B
:104B7800805F00F09A80774A536D23F44053D4F84D
:104B880084100B435365236813F0100F0DD0D4F82D
:104B98009830B3F5807F00F092806E4A936D23F4CD
:104BA8004073D4F898100B439365236813F4002FCF
:104BB80000F09A80D4F8A430B3F5803F00F08980E3
:104BC800B3F5003F08D0002B40F08A80002104F1A3
:104BD8000800FFF747FB0546002D40F084805D4A3A
:104BE800936D23F44033D4F8A4100B4393657BE012
:104BF800012104F12800FFF7B9FB054640E701262B
:104C0800354648E72E4646E70126354665E7B3F1BF
:104C1800804F3FF457AFB3F1A04F3FF453AFB3F118
:104C2800405F3FF44FAF0126354656E7022104F1B5
:104C38002800FFF79BFB054644E72E464DE7012673
:104C480035466CE7B3F5805F3FF45EAFB3F5A05F20
:104C58003FF45AAFB3F5406F3FF456AF01263546DF
:104C68005DE7022104F12800FFF780FB05464BE7CA
:104C78002E4654E70126354673E7B3F5004F3FF457
:104C880065AFB3F5204F3FF461AFB3F5C04F3FF4C4
:104C98005DAF0126354664E7022104F12800FFF7DD
:104CA80065FB054652E72E465BE7022104F1280022
:104CB800FFF75CFB00283FF45EAF01265BE70221AB
:104CC80004F12800FFF752FB00283FF466AF0126E5
:104CD80063E7022104F12800FFF748FB05467BE75C
:104CE8000126354600E02E46236813F4802F18D09D
:104CF800D4F88830B3F5001F1FD0B3F5401F07D094
:104D0800B3F5801F20D1134AD36A43F40033D3622A
:104D1800EDB9104A536D23F44013D4F888100B43AF
:104D28005365236813F4803F2CD0236DA3B1B3F5EA
:104D3800803F1FD00126354624E0012104F12800D8
:104D4800FFF714FB0546E3E701263546E9E72E465B
:104D5800E7E700BF00440258704AD36A43F40033BF
:104D6800D36275B96D4AD36C23F48033216D0B433C
:104D7800D36407E0022104F10800FFF773FA05463F
:104D8800EFE72E46236813F0005F11D1236813F470
:104D9800003F28D0D4F88030B3F5807F14D010D9E4
:104DA800B3F5007F15D0B3F5407F12D001261AE085
:104DB800022104F12800FFF7D9FA0028E6D00126DD
:104DC800E4E733B101260EE0544AD36A43F40033D2
:104DD800D362002D69D1514A536D23F44073D4F83E
:104DE80080100B435365236813F4801F06D04B4A89
:104DF800136D23F00043616F0B431365236813F0B1
:104E0800805F07D0454A136923F48043D4F8B8106B
:104E18000B431361236813F4001F06D03F4A136D38
:104E280023F08073E16E0B431365236813F0804F02
:104E380009D03A4B1A6922F400421A611A69D4F867
:104E4800BC100A431A612368002B06DA334AD36C74
:104E580023F04053616D0B43D364236813F4000FB0
:104E680007D02E4A536D23F44003D4F88C100B431B
:104E78005365636813F0010F19D1636813F0020FCB
:104E88001ED1636813F0040F23D1636813F0080F71
:104E980028D1636813F0100F2DD1636813F0200F29
:104EA80032D106B101263046F8BD2E469BE70021D7
:104EB80004F10800FFF7D6F90028DED00646DCE743
:104EC800012104F10800FFF7CDF90028D9D00646E2
:104ED800D7E7022104F10800FFF7C4F90028D4D06D
:104EE8000646D2E7002104F12800FFF73FFA002820
:104EF800CFD00646CDE7012104F12800FFF736FAA6
:104F08000028CAD00646C8E7022104F12800FFF7A6
:104F18002DFA0028C5D00126C5E700BF0044025875
:104F280008B5FFF759F9054B1B6AC3F30213044A86
:104F3800D35C03F01F03D84008BD00BF00440258EB
:104F48006C7A00082DE9F0410446874B9E6A9D6AF9
:104F5800C5F30535D86AC0F30010DB6BC3F3CC0387
:104F680003FB00F0FBF74AFA002D00F0F78006F08B
:104F780003060746012E59D0022E00F0AB80002E02
:104F880040F0CA80784B1B6813F0200F2CD0DFF854
:104F9800D881D8F80030C3F3C1037448D840FBF770
:104FA8002DFA06462846FBF729FA01463046FBF754
:104FB80031FB0546D8F83800C0F30800FBF71EFAA5
:104FC80006464FF064513846FBF770FA0146304602
:104FD800FBF764F94FF07E51FBF760F9014628466C
:104FE800FBF764FA054642E02846FBF707FA014654
:104FF8005F48FBF70FFB05465B4B986BC0F3080057
:10500800FBF7FCF906464FF064513846FBF74EFAB9
:1050180001463046FBF742F94FF07E51FBF73EF967
:1050280001462846FBF742FA054620E02846FBF7EA
:10503800E5F901464F48FBF7EDFA05464A4B986BF0
:10504800C0F30800FBF7DAF906464FF0645138461A
:10505800FBF72CFA01463046FBF720F94FF07E515A
:10506800FBF71CF901462846FBF720FA05463E4E99
:10507800B06BC0F34620FBF7C1F94FF07E51FBF748
:105088000DF901462846FBF7C5FAFBF75FFB2060E0
:10509800B06BC0F30640FBF7B1F94FF07E51FBF758
:1050A800FDF801462846FBF7B5FAFBF74FFB6060B1
:1050B800B06BC0F30660FBF7A1F94FF07E51FBF728
:1050C800EDF801462846FBF7A5FAFBF73FFBA06081
:1050D800BDE8F0812846FBF791F901462648FBF721
:1050E80099FA0546204B986BC0F30800FBF786F940
:1050F80006464FF064513846FBF7D8F9014630466A
:10510800FBF7CCF84FF07E51FBF7C8F8014628466C
:10511800FBF7CCF90546AAE72846FBF76FF90146E5
:105128001448FBF777FA05460F4B986BC0F3080055
:10513800FBF764F906464FF064513846FBF7B6F9B9
:1051480001463046FBF7AAF84FF07E51FBF7A6F868
:1051580001462846FBF7AAF9054688E7002323609D
:105168006360A360B4E700BF004402580090D00316
:105178000024744C0024744A20BCBE4B2DE9F04135
:105188000446874B9E6A9D6AC5F30555D86AC0F3E5
:1051980000205B6CC3F3CC0303FB00F0FBF72EF994
:1051A800002D00F0F78006F003060746012E59D0BF
:1051B800022E00F0AB80002E40F0CA80784B1B68AE
:1051C80013F0200F2CD0DFF8D881D8F80030C3F3C3
:1051D800C1037448D840FBF711F906462846FBF787
:1051E8000DF901463046FBF715FA0546D8F8400098
:1051F800C0F30800FBF702F906464FF06451384641
:10520800FBF754F901463046FBF748F84FF07E515A
:10521800FBF744F801462846FBF748F9054642E003
:105228002846FBF7EBF801465F48FBF7F3F905461C
:105238005B4B186CC0F30800FBF7E0F806464FF02C
:1052480064513846FBF732F901463046FBF726F839
:105258004FF07E51FBF722F801462846FBF726F966
:10526800054620E02846FBF7C9F801464F48FBF7FA
:10527800D1F905464A4B186CC0F30800FBF7BEF895
:1052880006464FF064513846FBF710F901463046A0
:10529800FBF704F84FF07E51FBF700F8014628466B
:1052A800FBF704F905463E4E306CC0F34620FBF789
:1052B800A5F84FF07E51FAF7F1FF01462846FBF7B3
:1052C800A9F9FBF743FA2060306CC0F30640FBF7FE
:1052D80095F84FF07E51FAF7E1FF01462846FBF7B3
:1052E80099F9FBF733FA6060306CC0F30660FBF79E
:1052F80085F84FF07E51FAF7D1FF01462846FBF7B3
:1053080089F9FBF723FAA060BDE8F0812846FBF78E
:1053180075F801462648FBF77DF90546204B186CC1
:10532800C0F30800FBF76AF806464FF064513846A8
:10533800FBF7BCF801463046FAF7B0FF4FF07E5154
:10534800FAF7ACFF01462846FBF7B0F80546AAE78E
:105358002846FBF753F801461448FBF75BF9054666
:105368000F4B186CC0F30800FBF748F806464FF0DF
:1053780064513846FBF79AF801463046FAF78EFF33
:105388004FF07E51FAF78AFF01462846FBF78EF860
:10539800054688E7002323606360A360B4E700BF85
:1053A800004402580090D0030024744C0024744A2E
:1053B80020BCBE4B38B5044603680A4ADA60FCF7DD
:1053C8006FF805462368DB6813F0200F07D1FCF758
:1053D80067F8401BB0F57A7FF4D9032000E000207D
:1053E80038BD00BF5FFF030070B50368DA6812F0CC
:1053F800400F02D00025284670BD04464FF0FF320A
:10540800DA60FCF74DF8064600252368DB6813F0E0
:10541800400FF0D1032DEED0FCF742F8831BB3F513
:105428007A7FF2D9032584F82150EEE710B50446B7
:10543800104BDA6822F08002DA609B6813F0200FC4
:1054480006D1FFF7B7FF98B1032084F821000FE0D9
:10545800084A936823F020039360FFF7ABFF10B16D
:10546800032084F82100034A936843F020039360E3
:1054780010BD00BF0040005800284BD038B5044686
:1054880090F8213063B1022384F821302368DA6868
:1054980012F0100F09D00020012384F8213038BD04
:1054A80080F82030FBF7EAFDEDE7CA225A6223684C
:1054B80053225A622046FFF797FF28B12368FF223C
:1054C8005A620028EBD1E7E722689168124B0B403B
:1054D800936021688A68636820690343A06903436D
:1054E80013438B60A168E368226843EA01431361B0
:1054F8002046FFF79BFF0028E0D12268D36C23F0F9
:105508000303D3642168CB6CE26965692A431343BA
:10551800CB64D3E701207047BFFF8FFF08B338B5CE
:105528000D46044690F82C30B3B1022384F82C3091
:10553800214651F8040B01F077F862682946206883
:1055480001F0AAF8084A136843F0004313600123E6
:1055580084F82C30002038BD80F82D30FBF71EFB76
:10556800E3E70120704700BF0040005238B5044609
:1055780090F82C30D8B2022805D00D46052818BF5F
:10558800012801D0012038BD022384F82C3020687E
:1055980001F0DCF82B68022B04D0012384F82C30AE
:1055A8000020F0E7052384F82C300020EBE710B545
:1055B800044690F82C30D8B2022805D094F82C3044
:1055C800DBB2012B01D0012010BD022384F82C305E
:1055D800206801F0CFF8012384F82C300020F3E78D
:1055E800026852E8003F23F0C00342E80031002976
:1055F800F6D1026802F1080353E8003F23F40003E0
:10560800083242E800310029F3D12023C0F888305D
:1056180070470000026852E8003F23F4907342E8A4
:1056280000310029F6D1026802F1080353E8001F8F
:105638000D4B0B40083242E800310029F3D1C36E0C
:10564800012B06D02023C0F88C300023C3664367A3
:105658007047026852E8003F23F0100342E8003127
:105668000029F6D1EEE700BFFEFFFFEF704708B54F
:10567800026852E8003F23F0400342E80031002965
:10568800F6D12023C0F8883000238367FFF7EEFFA8
:1056980008BD7047704738B5846BD4F88820D4F8B3
:1056A8008C5023689B6813F0800F01D0212A10D0FA
:1056B80023689B6813F0400F01D0222D10D0D4F836
:1056C800903043F01003C4F89030204601F01AF9E6
:1056D80038BD0023A4F856302046FFF781FFE7E7DE
:1056E8000023A4F85E302046FFF794FFE7E708B5EB
:1056F800806B0023A0F85E30A0F8563001F002F964
:1057080008BD000070B504460268D3691068916846
:1057180040F60F0C13EA0C0F0DD113F0200F10D028
:1057280010F0200F02D111F0805F0AD0636F93B39D
:10573800204698472FE0884D0D402DD1874E3042A6
:105748002AD1E56E012D00F0C08013F4801F03D02C
:1057580011F4800F40F0948113F0800F07D010F0FF
:10576800800F40F0948111F4000F40F0908113F005
:10577800400F03D010F0400F40F0908113F4000F59
:1057880003D010F0804F40F08D8113F0807F02D05D
:105798000028C0F28B8170BD13F0010F09D010F4FE
:1057A800807F06D001261662D4F890203243C4F8D0
:1057B800902013F0020F0BD011F0010F08D02268CF
:1057C80002261662D4F8902042F00402C4F8902011
:1057D80013F0040F0BD011F0010F08D02268042633
:1057E8001662D4F8902042F00202C4F8902013F018
:1057F800080F0BD010F0200F00D13DB1226808250A
:105808001562D4F890202A43C4F8902013F4006F4E
:105818000CD010F0806F09D022684FF40065156233
:10582800D4F8902042F02002C4F89020D4F89020B8
:10583800002AB0D013F0200F09D010F0200F02D1A9
:1058480011F0805F03D0636F0BB120469847D4F8FE
:10585800902023689B6813F0400F02D112F0280FA4
:105868002CD02046FFF7D6FE23689B6813F0400F24
:1058780020D0226802F1080353E8003F23F04003D8
:10588800083242E800310029F3D1D4F880306BB1F6
:10589800334A1A65D4F88000FCF704FE00283FF468
:1058A8007AAFD4F88000036D984774E7204601F07A
:1058B80029F870E7204601F025F86CE7204601F04A
:1058C80021F80023C4F8903065E713F0100F3FF477
:1058D8003CAF10F0100F3FF438AF10231362236869
:1058E8009B6813F0400F00F09180D4F88020136873
:1058F8001C481D498B4218BF834237D018318B4250
:1059080034D018318B4231D018318B422ED0183117
:105918008B422BD018318B4228D018318B4225D09E
:1059280001F556718B4221D018318B421ED01831A7
:105938008B421BD018318B4218D018318B4215D0AE
:1059480018318B4212D018318B420FD018318B424C
:105958000CD05B689BB20BE0010000102001000432
:10596800F756000810000240280002405B689BB20E
:10597800002B3FF410AFB4F85C1099427FF60BAFE0
:10598800A4F85E30D369B3F5807F32D0226852E83C
:10599800003F23F4807342E800310029F6D12268E1
:1059A80002F1080353E8003F23F00103083242E8FC
:1059B80000310029F3D1226802F1080353E8003FBF
:1059C80023F04003083242E800310029F3D12023B4
:1059D800C4F88C300023E366226852E8003F23F0C5
:1059E800100342E800310029F6D1D4F88000FCF712
:1059F800B9FB02232367B4F85C10B4F85E309BB29D
:105A0800C91A89B2204600F07BFFC4E6B4F85C10DE
:105A1800B4F85E309BB2C91A89B2B4F85E309BB252
:105A2800002B3FF4B8AE00293FF4B5AE226852E827
:105A3800003F23F4907342E800300028F6D1226832
:105A480002F1080353E8000F1A4B0340083242E8FA
:105A580000300028F3D12023C4F88C300023E366FB
:105A68006367226852E8003F23F0100342E80030E1
:105A78000028F6D102232367204600F041FF8AE67A
:105A88004FF480131362204600F03AFD83E6A36FBB
:105A9800002B3FF480AE204698477CE62046FFF76F
:105AA800E6FD78E6204600F02DFD74E6204600F07D
:105AB80028FD70E6FEFFFFEF08B5806B0123036742
:105AC800C36E012B02D0FFF7E5FD08BDB0F85C10EE
